:100000000C94B3000C94D4000C94D4000C94D40041
:100010000C94D4000C94D6000C9408010C94D400D9
:100020000C94D4000C94D4000C94D4000C94D40000
:100030000C94D4000C94D4000C94D4000C94D400F0
:100040000C94D4000C94D4000C94D4000C94D400E0
:100050000C94D4000C94D4000C94D4000C94D400D0
:100060000C94D4000C9465170C94D4000C94D40018
:100070000C94D4000C94D4000C94D4000C94D400B0
:100080000C94D4000C94D4000C94D4000C94D400A0
:100090000C94D4000C94D4000C94D4000C94D40090
:1000A0000C94D4000C94D4000C94D4000C94D40080
:1000B0000C94D4000C94D4000C94D4000C94D40070
:1000C0000C94D4000C94D4000C94D4000C94D40060
:1000D0000C94D4000C94D4000C94D4000C94D40050
:1000E0000C94D40007634236B79BD8A71A396856D8
:1000F00018AEBAAB558C1D3CB7CC5763BD6DEDFD4A
:10010000753EF6177231BF000000803F0800000006
:10011000BE922449123EABAAAA2ABECDCCCC4C3EFC
:1001200000000080BEABAAAAAA3E00000000BF00EB
:100130000000803F0000000000084178D3BB4387E7
:10014000D1133D190E3CC3BD4282AD2B3E68EC82FB
:1001500076BED98FE1A93E4C80EFFFBE01C4FF7F80
:100160003F000000000011241FBECFEFD1E2DEBF30
:10017000CDBF00E00CBF13E0A0E0B2E0ECE1FDE594
:1001800000E00BBF02C007900D92A832B107D9F76B
:1001900013E0A8E2B3E001C01D92A337B107E1F775
:1001A0000E94A1200C948C2E0C9400001F920F92A0
:1001B0000FB60F9211242F933F938F939F93DF934A
:1001C000CF93CDB7DEB78091280390912903019694
:1001D00090932903809328032091280330912903C9
:1001E00080910002909101028217930730F481E020
:1001F00090E090932D0380932C03CF91DF919F91FA
:100200008F913F912F910F900FBE0F901F901895D7
:100210001F920F920FB60F9211242F933F938F933B
:100220009F93DF93CF93CDB7DEB780912A03909150
:100230002B03019690932B0380932A0320912A038A
:1002400030912B0380910002909101028217930755
:1002500030F481E090E090932D0380932C03CF91B4
:10026000DF919F918F913F912F910F900FBE0F9033
:100270001F901895DF93CF93CDB7DEB7A1E2B0E022
:10028000E1E2F0E080818F608C93A2E2B0E0E2E2F4
:10029000F0E08081807F8C93AAE0B1E0EAE0F1E0B9
:1002A000808188618C93ABE0B1E0EBE0F1E080818C
:1002B00088618C93CF91DF910895DF93CF93CDB771
:1002C000DEB7ADE2B0E0EDE2F0E080818F7E8C93AE
:1002D000AEE2B0E0EEE2F0E0808180618C93CF91FD
:1002E000DF910895DF93CF93CDB7DEB7ADE2B0E0F5
:1002F000EDE2F0E080818F7D8C93AEE2B0E0EEE243
:10030000F0E0808180628C93CF91DF910895DF933C
:10031000CF93CDB7DEB70E943A010E945D010E94E3
:100320007201CF91DF910895DF93CF93CDB7DEB700
:10033000F894AAE6B0E0EAE6F0E0808182608C936F
:10034000ADE3B0E0EDE3F0E0808180618C937894E0
:10035000CF91DF910895DF93CF93CDB7DEB7F894B7
:10036000AAE6B0E0EAE6F0E0808188608C93ADE335
:10037000B0E0EDE3F0E0808180628C937894CF91DF
:10038000DF910895DF93CF930F920F92CDB7DEB731
:100390008A8319828A818F708A83E2E2F0E0808109
:1003A00089838981807F898399818A81892B898347
:1003B000E2E2F0E0898180830F900F90CF91DF918E
:1003C0000895DF93CF93CDB7DEB786E00E94C201D8
:1003D000CF91DF910895DF93CF93CDB7DEB789E05A
:1003E0000E94C201CF91DF910895DF93CF93CDB7E3
:1003F000DEB785E00E94C201CF91DF910895DF93BF
:10040000CF93CDB7DEB78AE00E94C201CF91DF91D2
:100410000895DF93CF93CDB7DEB784E00E94C20189
:10042000CF91DF910895DF93CF93CDB7DEB782E010
:100430000E94C201CF91DF910895DF93CF93CDB792
:10044000DEB781E00E94C201CF91DF910895DF9372
:10045000CF93CDB7DEB788E00E94C201CF91DF9184
:100460000895DF93CF93CDB7DEB780E00E94C2013D
:10047000CF91DF910895DF93CF93CDB7DEB72C975F
:100480000FB6F894DEBF0FBECDBF9A87898780E094
:1004900090E0A0E0B0E08D839E83AF83B88719829F
:1004A0001A821B821C8289859A85CC01A0E0B0E06B
:1004B000BC01CD010E944029DC01CB01BC01CD0172
:1004C00028E431EE42E850E40E945227DC01CB01DF
:1004D0008D839E83AF83B8876D817E818F81988560
:1004E0000E948224DC01CB01CC01A0E0B0E0898332
:1004F0009A83AB83BC8310922B0310922A03109231
:1005000029031092280380912A0390912B039C01C8
:1005100040E050E01C8689819A81AB81BC8128171C
:1005200039074A075B0710F081E08C878091280328
:10053000909129039C0140E050E01B8689819A81BB
:10054000AB81BC81281739074A075B0710F091E09F
:100550009B878C859B85892B8823A9F20E94310279
:100560002C960FB6F894DEBF0FBECDBFCF91DF91B2
:100570000895DF93CF93CDB7DEB72C970FB6F894DD
:10058000DEBF0FBECDBF9A87898780E090E0A0E0F4
:10059000B0E08D839E83AF83B88719821A821B8255
:1005A0001C8289859A85CC01A0E0B0E0BC01CD0118
:1005B0000E944029DC01CB01BC01CD0125EE30EDCC
:1005C0004AEA50E40E945227DC01CB018D839E83CE
:1005D000AF83B8876D817E818F8198850E94822448
:1005E000DC01CB0189839A83AB83BC8310922B03FC
:1005F00010922A03109229031092280380912A0353
:1006000090912B039C0140E050E01C8689819A81E7
:10061000AB81BC81281739074A075B0710F081E0DE
:100620008C8780912803909129039C0140E050E041
:100630001B8689819A81AB81BC81281739074A07BB
:100640005B0710F091E09B878C859B85892B882325
:10065000A9F20E9431022C960FB6F894DEBF0FBEAD
:10066000CDBFCF91DF910895DF93CF930F920F927B
:10067000CDB7DEB79A8389830E94E10189819A818F
:100680000E94B9020F900F90CF91DF910895DF93F0
:10069000CF930F920F92CDB7DEB79A8389830E94D2
:1006A000EB0189819A810E94B9020F900F90CF913E
:1006B000DF910895DF93CF930F920F92CDB7DEB7FE
:1006C0009A8389830E94FF0189819A810E943B025B
:1006D0000E9431020F900F90CF91DF910895DF9328
:1006E000CF930F920F92CDB7DEB79A8389830E9482
:1006F000F50189819A810E943B020E9431020F908C
:100700000F90CF91DF910895DF93CF93CDB7DEB7F0
:10071000E1E2F1E01082E5E2F1E08FEF8083E4E2D4
:10072000F1E081E08083E9E2F1E01082E8E2F1E0CB
:100730008FEF8083EBE2F1E01082EAE2F1E08FEFED
:100740008083EDE2F1E01082ECE2F1E08FEF808354
:10075000E0E2F1E089EA8083E1E2F1E08BE080838E
:10076000CF91DF910895DF93CF930F920F92CDB782
:10077000DEB789836A83E8E2F1E089818083EAE277
:10078000F1E08A8180830F900F90CF91DF910895DF
:10079000DF93CF930F920F92CDB7DEB79A83898301
:1007A00089819A818F3F910524F08FEF90E09A83A1
:1007B0008983E8E2F1E0898180830F900F90CF91E7
:1007C000DF910895DF93CF930F920F92CDB7DEB7ED
:1007D0009A83898389819A818F3F910524F08FEFD5
:1007E00090E09A838983EAE2F1E0898180830F9027
:1007F0000F90CF91DF910895DF93CF93CDB7DEB700
:10080000E0E3F0E01082E1E3F0E01082E7E0F1E005
:100810001082E8E0F1E01082CF91DF910895DF933C
:10082000CF93CDB7DEB70E94FC03CF91DF9108953F
:10083000DF93CF93CDB7DEB7EAE7F0E01082EBE7C6
:10084000F0E01082ECE7F0E080E28083E0E5F0E0A9
:1008500080E88083EAE7F0E086E88083CF91DF914B
:100860000895DF93CF930F920F92CDB7DEB78A83AF
:100870008A81883020F0EBE7F0E088E080838A818D
:1008800087708A83ECE7F0E08A8180628083AAE740
:10089000B0E0EAE7F0E0808180648C93EAE7F0E082
:1008A0008081882F90E0807190700097B9F3E9E71C
:1008B000F0E080818983AAE7B0E0EAE7F0E0808198
:1008C00080618C93EBE7F0E0108289810F900F90AC
:1008D000CF91DF910895DF93CF93CDB7DEB7E0E3FB
:1008E000F0E01082E1E3F0E01082E1E2F0E08FE07E
:1008F0008083E2E2F0E01082EAE0F1E088E18083C8
:10090000EBE0F1E088E18083E7E2F0E08FEF8083C5
:10091000E8E2F0E01082E4E0F1E01082E5E0F1E0EE
:100920008FEF8083CF91DF910895DF93CF93CDB781
:10093000DEB727970FB6F894DEBF0FBECDBF8F830B
:100940008F81882F90E0A0E0B0E0BC01CD010E9433
:100950004029DC01CB01BC01CD012FEE39EC43E98C
:100960005FE30E94152CDC01CB019C01AD0160E02E
:1009700070E080E89FE30E945227DC01CB01BC01BC
:10098000CD012AE939EF4EE255E40E945826DC01F8
:10099000CB01BC01CD0120E030E040E251E40E94F7
:1009A0005826DC01CB01BC01CD010E94EC28DC0102
:1009B000CB01AA2797FDA095BA2FBC01CD010E94BB
:1009C0008E28DC01CB018B839C83AD83BE836B813E
:1009D0007C818D819E810E94EC28DC01CB019A8371
:1009E000898389819A8123E08132920720F080E215
:1009F00093E09A83898389819A8127960FB6F89428
:100A0000DEBF0FBECDBFCF91DF910895DF93CF93AF
:100A100000D0CDB7DEB78BE00E9431048983898195
:100A20000E9495049B838A838A819B810F900F90FB
:100A30000F90CF91DF910895DF93CF93CDB7DEB7BD
:100A4000E0E3F0E01082E1E3F0E01082E1E2F0E0C8
:100A50008FE08083E2E2F0E01082EAE0F1E088E1FA
:100A60008083EBE0F1E088E18083E7E2F0E08FEF64
:100A70008083E8E2F0E01082E4E0F1E01082E5E05B
:100A8000F1E08FEF8083CF91DF9108950F931F9353
:100A9000DF93CF93CDB7DEB7C057D0400FB6F894F1
:100AA000DEBF0FBECDBFFE01E359FF4F80E090E0F7
:100AB000A0E8BFE380839183A283B3838E010759AB
:100AC0001F4FFE01E359FF4F608171818281938145
:100AD0002DEC3CEC4CE255E40E945826DC01CB01A5
:100AE000F80180839183A283B383FE01E759FF4F0E
:100AF000608171818281938120E030E040E85FE392
:100B00000E945E28882344F4FE01E959FF4F81E0EA
:100B100090E09183808364C0FE01E759FF4F6081BC
:100B200071818281938120E03FEF4FE757E40E947B
:100B3000FE2718160CF043C0FE01E359FF4F6081F9
:100B400071818281938120E030E040E251E40E9493
:100B50005826DC01CB018E0109591F4FBC01CD0184
:100B60000E948224DC01CB01F801918380831FC0A5
:100B7000FE01EB59FF4F84E191E091838083FE01F8
:100B8000EB59FF4F808191810197F1F7FE01EB59FD
:100B9000FF4F91838083DE01A959BF4FFE01E959C0
:100BA000FF4F80819181019711969C938E93FE0156
:100BB000E959FF4F808191810097D1F627C08E01BE
:100BC00009591F4FFE01E759FF4F608171818281F2
:100BD00093810E948224DC01CB01F8019183808300
:100BE000DE01AD59BF4FFE01E959FF4F8081918170
:100BF0008D939C93FE01ED59FF4F80819181019768
:100C0000F1F7FE01ED59FF4F91838083A8E2B0E038
:100C1000E8E2F0E080818E7F8C93A8E2B0E0E8E229
:100C2000F0E080818D7F8C93E8E2F0E080E38083C8
:100C3000A8E2B0E0E8E2F0E0808184608C93FE01FD
:100C4000E15AFF4F80E090E0A0EAB0E48083918316
:100C5000A283B3838E01055A1F4FFE01E15AFF4F55
:100C600060817181828193812DEC3CEC4CE255E4F2
:100C70000E945826DC01CB01F80180839183A28376
:100C8000B383FE01E55AFF4F6081718182819381B8
:100C900020E030E040E85FE30E945E28882344F4CF
:100CA000FE01E75AFF4F81E090E09183808364C0AA
:100CB000FE01E55AFF4F608171818281938120E0BE
:100CC0003FEF4FE757E40E94FE2718160CF043C091
:100CD000FE01E15AFF4F608171818281938120E0A2
:100CE00030E040E251E40E945826DC01CB018E0145
:100CF000075A1F4FBC01CD010E948224DC01CB01A9
:100D0000F801918380831FC0FE01E95AFF4F84E1FF
:100D100091E091838083FE01E95AFF4F80819181A8
:100D20000197F1F7FE01E95AFF4F91838083DE01BD
:100D3000A75ABF4FFE01E75AFF4F8081918101976B
:100D400011969C938E93FE01E75AFF4F808191810B
:100D50000097D1F627C08E01075A1F4FFE01E55AB2
:100D6000FF4F60817181828193810E948224DC0126
:100D7000CB01F80191838083DE01AB5ABF4FFE01A6
:100D8000E75AFF4F808191818D939C93FE01EB5A2E
:100D9000FF4F808191810197F1F7FE01EB5AFF4FE0
:100DA00091838083A8E2B0E0E8E2F0E080818B7F6D
:100DB0008C93FE01EF5AFF4F80E090E0A0E8BFE384
:100DC00080839183A283B3838E01035B1F4FFE0157
:100DD000EF5AFF4F60817181828193812DEC3CEC51
:100DE0004CE255E40E945826DC01CB01F8018083D7
:100DF0009183A283B383FE01E35BFF4F6081718126
:100E00008281938120E030E040E85FE30E945E2829
:100E1000882344F4FE01E55BFF4F81E090E091837D
:100E2000808364C0FE01E35BFF4F6081718182813A
:100E3000938120E03FEF4FE757E40E94FE2718160A
:100E40000CF043C0FE01EF5AFF4F60817181828137
:100E5000938120E030E040E251E40E945826DC011A
:100E6000CB018E01055B1F4FBC01CD010E94822486
:100E7000DC01CB01F801918380831FC0FE01E75B99
:100E8000FF4F84E191E091838083FE01E75BFF4F98
:100E9000808191810197F1F7FE01E75BFF4F91831C
:100EA0008083DE01A55BBF4FFE01E55BFF4F8081C4
:100EB0009181019711969C938E93FE01E55BFF4F04
:100EC000808191810097D1F627C08E01055B1F4F6D
:100ED000FE01E35BFF4F60817181828193810E94FB
:100EE0008224DC01CB01F80191838083DE01A95BC0
:100EF000BF4FFE01E55BFF4F808191818D939C93F5
:100F0000FE01E95BFF4F808191810197F1F7FE01BE
:100F1000E95BFF4F91838083A8E2B0E0E8E2F0E074
:100F200080818E7F8C93A8E2B0E0E8E2F0E08081DF
:100F30008D7F8C93E8E2F0E080E38083A8E2B0E06C
:100F4000E8E2F0E0808184608C93FE01ED5BFF4F6E
:100F500080E090E0A0EAB0E480839183A283B38331
:100F60008E01015C1F4FFE01ED5BFF4F60817181BF
:100F7000828193812DEC3CEC4CE255E40E94582692
:100F8000DC01CB01F80180839183A283B383FE014E
:100F9000FF96608171818281938120E030E040E89A
:100FA0005FE30E945E2888232CF481E090E09EAFEE
:100FB0008DAF46C0FE01FF96608171818281938171
:100FC00020E03FEF4FE757E40E94FE27181664F534
:100FD000FE01ED5BFF4F608171818281938120E092
:100FE00030E040E251E40E945826DC01CB01BC0114
:100FF000CD010E948224DC01CB019EAF8DAF0FC0DA
:1010000084E191E09CAF8BAF8BAD9CAD0197F1F784
:101010009CAF8BAF8DAD9EAD01979EAF8DAF8DAD6B
:101020009EAD009769F716C0FE01FF966081718141
:10103000828193810E948224DC01CB019EAF8DAF1F
:101040008DAD9EAD9AAF89AF89AD9AAD0197F1F79D
:101050009AAF89AFA8E2B0E0E8E2F0E080818B7F50
:101060008C9380E090E0A0E8BFE38DAB9EABAFAB8C
:10107000B8AF6DA97EA98FA998AD2DEC3CEC4CE2E0
:1010800055E40E945826DC01CB0189AB9AABABAB8F
:10109000BCAB69A97AA98BA99CA920E030E040E803
:1010A0005FE30E945E2888232CF481E090E098ABF7
:1010B0008FA73FC069A97AA98BA99CA920E03FEF1F
:1010C0004FE757E40E94FE2718164CF56DA97EA93C
:1010D0008FA998AD20E030E040E251E40E9458260C
:1010E000DC01CB01BC01CD010E948224DC01CB01DB
:1010F00098AB8FA70FC084E191E09EA78DA78DA527
:101100009EA50197F1F79EA78DA78FA598A9019796
:1011100098AB8FA78FA598A9009769F714C069A904
:101120007AA98BA99CA90E948224DC01CB0198ABEF
:101130008FA78FA598A99CA78BA78BA59CA5019786
:10114000F1F79CA78BA7A8E2B0E0E8E2F0E080818D
:101150008E7F8C93A8E2B0E0E8E2F0E080818D7FA2
:101160008C93E8E2F0E080E38083A8E2B0E0E8E27C
:10117000F0E0808184608C9380E090E0A0EAB0E4AD
:101180008FA398A7A9A7BAA76FA178A589A59AA5A3
:101190002DEC3CEC4CE255E40E945826DC01CB01DE
:1011A0008BA39CA3ADA3BEA36BA17CA18DA19EA18B
:1011B00020E030E040E85FE30E945E2888232CF4C2
:1011C00081E090E09AA389A33FC06BA17CA18DA18F
:1011D0009EA120E03FEF4FE757E40E94FE2718163C
:1011E0004CF56FA178A589A59AA520E030E040E2F2
:1011F00051E40E945826DC01CB01BC01CD010E94C4
:101200008224DC01CB019AA389A30FC084E191E081
:1012100098A38F8F8F8D98A10197F1F798A38F8F47
:1012200089A19AA101979AA389A389A19AA100975C
:1012300069F714C06BA17CA18DA19EA10E9482249C
:10124000DC01CB019AA389A389A19AA19E8F8D8FDE
:101250008D8D9E8D0197F1F79E8F8D8FA8E2B0E066
:10126000E8E2F0E080818B7F8C9380E090E0A0E862
:10127000BFE3898F9A8FAB8FBC8F698D7A8D8B8DF1
:101280009C8D2DEC3CEC4CE255E40E945826DC0190
:10129000CB018D8B9E8BAF8BB88F6D897E898F89AB
:1012A000988D20E030E040E85FE30E945E288823CC
:1012B0002CF481E090E09C8B8B8B3FC06D897E8904
:1012C0008F89988D20E03FEF4FE757E40E94FE277B
:1012D00018164CF5698D7A8D8B8D9C8D20E030E051
:1012E00040E251E40E945826DC01CB01BC01CD0153
:1012F0000E948224DC01CB019C8B8B8B0FC084E18C
:1013000091E09A8B898B89899A890197F1F79A8B59
:10131000898B8B899C8901979C8B8B8B8B899C8972
:10132000009769F714C06D897E898F89988D0E9416
:101330008224DC01CB019C8B8B8B8B899C89988BC5
:101340008F878F8598890197F1F7988B8F87A8E20F
:10135000B0E0E8E2F0E080818E7F8C93A8E2B0E01C
:10136000E8E2F0E080818D7F8C93E8E2F0E080E2BB
:101370008083A8E2B0E0E8E2F0E0808184608C93B2
:1013800080E090E0A0EAB0E48B879C87AD87BE87C1
:101390006B857C858D859E852DEC3CEC4CE255E47F
:1013A0000E945826DC01CB018F839887A987BA87D2
:1013B0006F81788589859A8520E030E040E85FE399
:1013C0000E945E2888232CF481E090E09E838D8328
:1013D0003FC06F81788589859A8520E03FEF4FE790
:1013E00057E40E94FE2718164CF56B857C858D8589
:1013F0009E8520E030E040E251E40E945826DC0166
:10140000CB01BC01CD010E948224DC01CB019E8373
:101410008D830FC084E191E09C838B838B819C81C1
:101420000197F1F79C838B838D819E8101979E8329
:101430008D838D819E81009769F714C06F817885B7
:1014400089859A850E948224DC01CB019E838D834D
:101450008D819E819A83898389819A810197F1F791
:101460009A838983A8E2B0E0E8E2F0E080818B7F94
:101470008C93C059DF4F0FB6F894DEBF0FBECDBFBF
:10148000CF91DF911F910F910895DF93CF93CDB747
:10149000DEB72E970FB6F894DEBF0FBECDBF80E04B
:1014A00090E0A0E8BFE38B879C87AD87BE876B8504
:1014B0007C858D859E852DEC3CEC4CE255E40E94AC
:1014C0005826DC01CB018F839887A987BA876F8163
:1014D000788589859A8520E030E040E85FE30E94C6
:1014E0005E2888232CF481E090E09E838D833FC0AA
:1014F0006F81788589859A8520E03FEF4FE757E433
:101500000E94FE2718164CF56B857C858D859E857F
:1015100020E030E040E251E40E945826DC01CB019B
:10152000BC01CD010E948224DC01CB019E838D830E
:101530000FC084E191E09C838B838B819C81019718
:10154000F1F79C838B838D819E8101979E838D8390
:101550008D819E81009769F714C06F817885898598
:101560009A850E948224DC01CB019E838D838D812C
:101570009E819A83898389819A810197F1F79A8361
:10158000898388E20E94D90A81E00E94D90A86E014
:101590000E94D90A8EE00E94D90A80E80E94D90AE6
:1015A0002E960FB6F894DEBF0FBECDBFCF91DF9160
:1015B0000895DF93CF93CDB7DEB76E970FB6F8944B
:1015C000DEBF0FBECDBF8E8F8E8D8D8F8D8D807FB8
:1015D0008D8FA8E2B0E0E8E2F0E080818F708C931C
:1015E000A8E2B0E0E8E2F0E090818D8D892B8C9349
:1015F000A8E2B0E0E8E2F0E080818E7F8C93A8E280
:10160000B0E0E8E2F0E080818D7F8C93A8E2B0E06A
:10161000E8E2F0E0808184608C9380E090E0A0EAD2
:10162000B0E4898F9A8FAB8FBC8F698D7A8D8B8D4B
:101630009C8D2DEC3CEC4CE255E40E945826DC01DC
:10164000CB018D8B9E8BAF8BB88F6D897E898F89F7
:10165000988D20E030E040E85FE30E945E28882318
:101660002CF481E090E09C8B8B8B3FC06D897E8950
:101670008F89988D20E03FEF4FE757E40E94FE27C7
:1016800018164CF5698D7A8D8B8D9C8D20E030E09D
:1016900040E251E40E945826DC01CB01BC01CD019F
:1016A0000E948224DC01CB019C8B8B8B0FC084E1D8
:1016B00091E09A8B898B89899A890197F1F79A8BA6
:1016C000898B8B899C8901979C8B8B8B8B899C89BF
:1016D000009769F714C06D897E898F89988D0E9463
:1016E0008224DC01CB019C8B8B8B8B899C89988B12
:1016F0008F878F8598890197F1F7988B8F87A8E25C
:10170000B0E0E8E2F0E080818B7F8C938E8D8F706B
:101710008E8F8E8D8295807F8E8FA8E2B0E0E8E27A
:10172000F0E080818F708C93A8E2B0E0E8E2F0E016
:1017300090818E8D892B8C93A8E2B0E0E8E2F0E0F6
:1017400080818E7F8C93A8E2B0E0E8E2F0E08081B7
:101750008D7F8C93A8E2B0E0E8E2F0E080818460C5
:101760008C9380E090E0A0EAB0E48B879C87AD8703
:10177000BE876B857C858D859E852DEC3CEC4CE28F
:1017800055E40E945826DC01CB018F839887A987F6
:10179000BA876F81788589859A8520E030E040E8B6
:1017A0005FE30E945E2888232CF481E090E09E8312
:1017B0008D833FC06F81788589859A8520E03FEFD2
:1017C0004FE757E40E94FE2718164CF56B857C8581
:1017D0008D859E8520E030E040E251E40E9458264D
:1017E000DC01CB01BC01CD010E948224DC01CB01D4
:1017F0009E838D830FC084E191E09C838B838B81DA
:101800009C810197F1F79C838B838D819E81019749
:101810009E838D838D819E81009769F714C06F81AF
:10182000788589859A850E948224DC01CB019E837C
:101830008D838D819E819A83898389819A81019785
:10184000F1F79A838983A8E2B0E0E8E2F0E08081D2
:101850008B7F8C936E960FB6F894DEBF0FBECDBF14
:10186000CF91DF910895DF93CF93CDB7DEB76E9719
:101870000FB6F894DEBF0FBECDBF8E8F8E8D8D8FCD
:101880008D8D807F8D8FA8E2B0E0E8E2F0E080816E
:101890008F708C93A8E2B0E0E8E2F0E090818D8D4B
:1018A000892B8C93A8E2B0E0E8E2F0E080818160CF
:1018B0008C93A8E2B0E0E8E2F0E080818D7F8C9329
:1018C000A8E2B0E0E8E2F0E0808184608C9380E000
:1018D00090E0A0EAB0E4898F9A8FAB8FBC8F698DBE
:1018E0007A8D8B8D9C8D2DEC3CEC4CE255E40E9466
:1018F0005826DC01CB018D8B9E8BAF8BB88F6D8909
:101900007E898F89988D20E030E040E85FE30E9477
:101910005E2888232CF481E090E09C8B8B8B3FC069
:101920006D897E898F89988D20E03FEF4FE757E4DE
:101930000E94FE2718164CF5698D7A8D8B8D9C8D33
:1019400020E030E040E251E40E945826DC01CB0167
:10195000BC01CD010E948224DC01CB019C8B8B8BCE
:101960000FC084E191E09A8B898B89899A890197CC
:10197000F1F79A8B898B8B899C8901979C8B8B8B38
:101980008B899C89009769F714C06D897E898F893E
:10199000988D0E948224DC01CB019C8B8B8B8B89E0
:1019A0009C89988B8F878F8598890197F1F7988B01
:1019B0008F87A8E2B0E0E8E2F0E080818B7F8C9333
:1019C0008E8D8F708E8F8E8D8295807F8E8FA8E208
:1019D000B0E0E8E2F0E080818F708C93A8E2B0E0A4
:1019E000E8E2F0E090818E8D892B8C93A8E2B0E044
:1019F000E8E2F0E0808181608C93A8E2B0E0E8E268
:101A0000F0E080818D7F8C93A8E2B0E0E8E2F0E026
:101A1000808184608C9380E090E0A0EAB0E48B87C2
:101A20009C87AD87BE876B857C858D859E852DECDB
:101A30003CEC4CE255E40E945826DC01CB018F833C
:101A40009887A987BA876F81788589859A8520E0EC
:101A500030E040E85FE30E945E2888232CF481E0B8
:101A600090E09E838D833FC06F81788589859A85BC
:101A700020E03FEF4FE757E40E94FE2718164CF591
:101A80006B857C858D859E8520E030E040E251E4C9
:101A90000E945826DC01CB01BC01CD010E948224AA
:101AA000DC01CB019E838D830FC084E191E09C8398
:101AB0008B838B819C810197F1F79C838B838D8134
:101AC0009E8101979E838D838D819E81009769F70A
:101AD00014C06F81788589859A850E948224DC01F3
:101AE000CB019E838D838D819E819A838983898199
:101AF0009A810197F1F79A838983A8E2B0E0E8E23E
:101B0000F0E080818B7F8C936E960FB6F894DEBFE9
:101B10000FBECDBFCF91DF910895DF93CF93CDB7A7
:101B2000DEB780E80E94D90ACF91DF910895DF9354
:101B3000CF930F920F92CDB7DEB79A8389830AC0F5
:101B4000E981FA8180810E94330C89819A81019612
:101B50009A838983E981FA818081882389F70F90AC
:101B60000F90CF91DF910895DF93CF9300D00F9224
:101B7000CDB7DEB789836A838981282F30E03C8323
:101B80002B838B819C8182309105D9F02B813C8104
:101B90002330310534F48B819C818130910561F0D3
:101BA0001EC02B813C812330310581F08B819C81CB
:101BB0008430910581F013C08A8181580E94D90A2E
:101BC0000EC08A8181540E94D90A09C08A818D562B
:101BD0000E94D90A04C08A818D520E94D90A0F90AE
:101BE0000F900F900F90CF91DF910895DF93CF93D7
:101BF000CDB7DEB727970FB6F894DEBF0FBECDBFC7
:101C00008A836B835D834C833F832E8319828A8111
:101C1000882319F08B81882319F40E948D0D04C04C
:101C20008A816B810E94B40D8E819F8185309105E0
:101C300019F089818130A9F48C819D8120E137E2FE
:101C4000B9010E94B72BCB01C096909348038093B3
:101C5000470380914703909148030E94330C81E031
:101C600089838E819F818430910519F0898181302B
:101C700011F58C819D8128EE33E0B9010E94B72BCC
:101C8000CB0190934D0380934C0380914C03909132
:101C90004D032AE030E0B9010E94B72BC096909323
:101CA00072038093710380917103909172030E947B
:101CB000330C81E089838E819F818330910519F0F7
:101CC0008981813011F58C819D8124E630E0B90154
:101CD0000E94B72BCB0190934D0380934C038091CE
:101CE0004C0390914D032AE030E0B9010E94B72BDC
:101CF000C09690936E0380936D0380916D039091D5
:101D00006E030E94330C81E089838E819F81823033
:101D1000910519F08981813011F58C819D812AE02E
:101D200030E0B9010E94B72BCB0190934D03809313
:101D30004C0380914C0390914D032AE030E0B901AF
:101D40000E94B72BC096909368038093670380919D
:101D50006703909168030E94330C81E089838E8130
:101D60009F818130910519F08981813091F48C81B6
:101D70009D812AE030E0B9010E94B72BC096909374
:101D8000700380936F0380916F03909170030E94A2
:101D9000330C8E819F81863091051CF085E40E9472
:101DA000330C27960FB6F894DEBF0FBECDBFCF9190
:101DB000DF910895DF93CF930F920F92CDB7DEB7E7
:101DC0009A83898329813A8181E061E0A90124E035
:101DD00030E00E94F60D0F900F90CF91DF910895A3
:101DE000DF93CF93CDB7DEB728970FB6F894DEBF59
:101DF0000FBECDBF98878F831C821B828F819885F1
:101E00000E94AE2B01979A8389832FC02B813C813E
:101E10008F819885FC01E20FF31F8081882F90E06D
:101E20009E838D832B813C818F819885DC01A20F5D
:101E3000B31F29813A818F819885FC01E20FF31F3E
:101E400080818C9329813A818F819885FC01E20FF2
:101E5000F31F8D8180838B819C8101969C838B8372
:101E600089819A8101979A8389832B813C81898119
:101E70009A812817390754F228960FB6F894DEBFD6
:101E80000FBECDBFCF91DF910895DF93CF93CDB734
:101E9000DEB728970FB6F894DEBF0FBECDBF9E8386
:101EA0008D8378876F838D819E819A8389838981D1
:101EB0009A8199233CF48D819E81909581959F4FC5
:101EC0009E838D831C821B822B813C818F81988510
:101ED000FC01E20FF31F8D819E812AE030E0B90101
:101EE0000E94CB2B805D80838B819C8101969C839B
:101EF0008B838D819E812AE030E0B9010E94CB2B3B
:101F0000CB019E838D838D819E8118161906E4F284
:101F100089819A81992374F42B813C818F819885E2
:101F2000FC01E20FF31F8DE280838B819C8101967F
:101F30009C838B832B813C818F819885FC01E20FF0
:101F4000F31F10828F8198850E94F00E28960FB69D
:101F5000F894DEBF0FBECDBFCF91DF910895DF9320
:101F6000CF930F920F92CDB7DEB79A8389832981E1
:101F70003A8182E061E0A90124E030E00E94F60DA0
:101F80000F900F90CF91DF910895DF93CF93CDB74E
:101F9000DEB7A7E2B0E0E7E2F0E0808188608C93F2
:101FA000E8E2F0E01082CF91DF910895DF93CF93C4
:101FB000CDB7DEB76A970FB6F894DEBF0FBECDBFC0
:101FC0001A8E198EC3C080E090E0A8ECB2E48D8B2D
:101FD0009E8BAF8BB88F6D897E898F89988D2AEF04
:101FE0003DEE4BE650E40E945826DC01CB01898B84
:101FF0009A8BAB8BBC8B69897A898B899C8920E011
:1020000030E040E85FE30E945E2888231CF481E012
:10201000888B91C069897A898B899C8920E030E01E
:102020004FE753E40E94FE2718160CF07BC06D8921
:102030007E898F89988D20E030E04AE754E40E9441
:102040005227DC01CB018C879D87AE87BF876C85CB
:102050007D858E859F852DEC3CEC4CE255E40E94FD
:102060005826DC01CB0188879987AA87BB876885BA
:1020700079858A859B8520E030E040E85FE30E9417
:102080005E2888232CF481E090E09F838E833FC0FC
:10209000688579858A859B8520E03FEF4FE757E487
:1020A0000E94FE2718164CF56C857D858E859F85D0
:1020B00020E030E040E251E40E945826DC01CB01F0
:1020C000BC01CD010E948224DC01CB019F838E8361
:1020D0000FC084E191E09D838C838C819D81019769
:1020E000F1F79D838C838E819F8101979F838E83DF
:1020F0008E819F81009769F724C0688579858A85DC
:102100009B850E948224DC01CB019F838E838E817C
:102110009F819B838A838A819B810197F1F79B83AF
:102120008A830FC069897A898B899C890E9482245D
:10213000DC01CB01888B8889898389818A95F1F7B5
:102140008983898D9A8D01969A8F898F898D9A8D31
:102150008A30910508F437CF6A960FB6F894DEBF3F
:102160000FBECDBFCF91DF910895DF93CF9300D005
:10217000CDB7DEB71B821A82E8E2F0E08081898366
:10218000898188608983E8E2F0E0898180830E9408
:10219000D60FE8E2F0E0808189838981877F898397
:1021A000E8E2F0E0898180830F900F900F90CF914B
:1021B000DF910895DF93CF93CDB7DEB7E8E2F0E08B
:1021C00010820E94D60FCF91DF910895DF93CF93B5
:1021D000CDB7DEB7A4E2B0E0E4E2F0E08081806257
:1021E0008C93A5E2B0E0E5E2F0E0808180628C9320
:1021F000CF91DF910895DF93CF93CDB7DEB7A4E2FF
:10220000B0E0E4E2F0E0808180648C93A5E2B0E08D
:10221000E5E2F0E0808180648C93CF91DF910895B6
:10222000DF93CF93CDB7DEB7A4E2B0E0E4E2F0E015
:10223000808180688C93A5E2B0E0E5E2F0E08081E7
:1022400080688C93CF91DF910895DF93CF93CDB7C2
:10225000DEB70E94E6100E94FB100E941011CF9181
:10226000DF910895DF93CF93CDB7DEB7E1E8F0E0DB
:102270001082E5E8F0E08CEF8083E4E8F0E081E0B4
:102280008083E9E8F0E083E08083E8E8F0E08FEF26
:102290008083EBE8F0E083E08083EAE8F0E08FEF12
:1022A0008083EDE8F0E083E08083ECE8F0E08FEFFE
:1022B0008083E7E8F0E083E08083E6E8F0E08FEFFA
:1022C0008083E0E8F0E08BEA8083E2E8F0E01082CF
:1022D000E1E8F0E08CE08083CF91DF910895DF9317
:1022E000CF93CDB7DEB7F8940E9425110E9432112A
:1022F0007894CF91DF9108950F931F93DF93CF933D
:1023000000D00F920F92CDB7DEB78D8380E090E0C2
:10231000A0E0B0E089839A83AB83BC838D81882F52
:1023200090E0A0E0B0E0BC01CD010E944029DC01BA
:10233000CB01BC01CD0120E030E040E150E40E943F
:102340005227DC01CB01BC01CD0120E030E048EA9E
:1023500051E40E942B26DC01CB0189839A83AB8355
:10236000BC83E9E8F0E0108208E810E069817A8136
:102370008B819C810E948224DC01CB01F801808347
:102380000F900F900F900F900F90CF91DF911F91B2
:102390000F9108950F931F93DF93CF9300D00F9267
:1023A0000F92CDB7DEB78D8380E090E0A0E0B0E083
:1023B00089839A83AB83BC838D81882F90E0A0E0D2
:1023C000B0E0BC01CD010E944029DC01CB01BC0181
:1023D000CD0120E030E040E150E40E945227DC01D2
:1023E000CB01BC01CD0120E030E048EA51E40E947D
:1023F0002B26DC01CB0189839A83AB83BC83EBE87A
:10240000F0E010820AE810E069817A818B819C817A
:102410000E948224DC01CB01F80180830F900F9091
:102420000F900F900F90CF91DF911F910F91089512
:102430000F931F93DF93CF9300D00F920F92CDB7DE
:10244000DEB78D8380E090E0A0E0B0E089839A83DE
:10245000AB83BC838D81882F90E0A0E0B0E0BC010D
:10246000CD010E944029DC01CB01BC01CD0120E05F
:1024700030E040E150E40E945227DC01CB01BC0176
:10248000CD0120E030E048EA51E40E942B26DC0137
:10249000CB0189839A83AB83BC83EDE8F0E01082A3
:1024A0000CE810E069817A818B819C810E948224F2
:1024B000DC01CB01F80180830F900F900F900F90FB
:1024C0000F90CF91DF911F910F910895DF93CF93DC
:1024D000CDB7DEB7E9E8F0E083E08083E8E8F0E03C
:1024E0008FEF8083CF91DF910895DF93CF93CDB7A6
:1024F000DEB7EBE8F0E083E08083EAE8F0E08FEF1E
:102500008083CF91DF910895DF93CF93CDB7DEB76E
:10251000EDE8F0E083E08083ECE8F0E08FEF80838B
:10252000CF91DF910895DF93CF93CDB7DEB72E978C
:102530000FB6F894DEBF0FBECDBF8091020290911E
:1025400003020E94181280E090E0A8E4B2E48B87B6
:102550009C87AD87BE876B857C858D859E852DECA0
:102560003CEC4CE255E40E945826DC01CB018F8301
:102570009887A987BA876F81788589859A8520E0B1
:1025800030E040E85FE30E945E2888232CF481E07D
:1025900090E09E838D833FC06F81788589859A8581
:1025A00020E03FEF4FE757E40E94FE2718164CF556
:1025B0006B857C858D859E8520E030E040E251E48E
:1025C0000E945826DC01CB01BC01CD010E9482246F
:1025D000DC01CB019E838D830FC084E191E09C835D
:1025E0008B838B819C810197F1F79C838B838D81F9
:1025F0009E8101979E838D838D819E81009769F7CF
:1026000014C06F81788589859A850E948224DC01B7
:10261000CB019E838D838D819E819A83898389815D
:102620009A810197F1F79A8389832E960FB6F894D1
:10263000DEBF0FBECDBFCF91DF910895DF93CF9363
:10264000CDB7DEB72E970FB6F894DEBF0FBECDBF65
:1026500080910402909105020E94181280E090E09F
:10266000A8E4B2E48B879C87AD87BE876B857C85A9
:102670008D859E852DEC3CEC4CE255E40E9458265D
:10268000DC01CB018F839887A987BA876F81788512
:1026900089859A8520E030E040E85FE30E945E286B
:1026A00088232CF481E090E09E838D833FC06F816E
:1026B000788589859A8520E03FEF4FE757E40E94AF
:1026C000FE2718164CF56B857C858D859E8520E050
:1026D00030E040E251E40E945826DC01CB01BC010D
:1026E000CD010E948224DC01CB019E838D830FC02B
:1026F00084E191E09C838B838B819C810197F1F72E
:102700009C838B838D819E8101979E838D838D8198
:102710009E81009769F714C06F81788589859A85B5
:102720000E948224DC01CB019E838D838D819E815A
:102730009A83898389819A810197F1F79A838983A2
:102740002E960FB6F894DEBF0FBECDBFCF91DF91AE
:102750000895DF93CF93CDB7DEB72E970FB6F894D9
:10276000DEBF0FBECDBF80910602909107020E948E
:10277000181280E090E0A8E4B2E48B879C87AD87D4
:10278000BE876B857C858D859E852DEC3CEC4CE26F
:1027900055E40E945826DC01CB018F839887A987D6
:1027A000BA876F81788589859A8520E030E040E896
:1027B0005FE30E945E2888232CF481E090E09E83F2
:1027C0008D833FC06F81788589859A8520E03FEFB2
:1027D0004FE757E40E94FE2718164CF56B857C8561
:1027E0008D859E8520E030E040E251E40E9458262D
:1027F000DC01CB01BC01CD010E948224DC01CB01B4
:102800009E838D830FC084E191E09C838B838B81B9
:102810009C810197F1F79C838B838D819E81019729
:102820009E838D838D819E81009769F714C06F818F
:10283000788589859A850E948224DC01CB019E835C
:102840008D838D819E819A83898389819A81019765
:10285000F1F79A8389832E960FB6F894DEBF0FBEE8
:10286000CDBFCF91DF9108950F931F93DF93CF9347
:10287000CDB7DEB76E970FB6F894DEBF0FBECDBFF3
:102880006B8F7C8F8D8F9E8F20910A0230910B026F
:102890008091080290910902A901481B590BCA01B5
:1028A000CC01A0E0B0E0BC01CD010E944029DC01D8
:1028B000CB018F8B988FA98FBA8F6B8D7C8D8D8D6F
:1028C0009E8D20E030E040E251E40E945826DC0179
:1028D000CB01BC01CD012F89388D498D5A8D0E94C5
:1028E0005826DC01CB01BC01CD0120E030E84CE7EB
:1028F00054E40E945227DC01CB018B8B9C8BAD8B67
:10290000BE8B00910A0210910B026B897C898D8924
:102910009E890E94EC28DC01CB019801281B390B11
:10292000C9019A8B898B188A1F8680910C0290911D
:102930000D02988B8F877AC08F850E947C1180E072
:1029400090E0A0EAB1E48B879C87AD87BE876B855A
:102950007C858D859E852DEC3CEC4CE255E40E94F7
:102960005826DC01CB018F839887A987BA876F81AE
:10297000788589859A8520E030E040E85FE30E9411
:102980005E2888232CF481E090E09E838D833FC0F5
:102990006F81788589859A8520E03FEF4FE757E47E
:1029A0000E94FE2718164CF56B857C858D859E85CB
:1029B00020E030E040E251E40E945826DC01CB01E7
:1029C000BC01CD010E948224DC01CB019E838D835A
:1029D0000FC084E191E09C838B838B819C81019764
:1029E000F1F79C838B838D819E8101979E838D83DC
:1029F0008D819E81009769F714C06F8178858985E4
:102A00009A850E948224DC01CB019E838D838D8177
:102A10009E819A83898389819A810197F1F79A83AC
:102A200089838F8598890197988B8F872F8538891F
:102A300089899A89821793070CF47ECF89899A89AC
:102A400090930D0280930C026E960FB6F894DEBF41
:102A50000FBECDBFCF91DF911F910F910895DF93EE
:102A6000CF93CDB7DEB760970FB6F894DEBF0FBE39
:102A7000CDBF188A1F8680910C0290910D02988B11
:102A80008F877AC08F850E947C1180E090E0A0EA59
:102A9000B1E48B879C87AD87BE876B857C858D85F0
:102AA0009E852DEC3CEC4CE255E40E945826DC015E
:102AB000CB018F839887A987BA876F8178858985AD
:102AC0009A8520E030E040E85FE30E945E2888239A
:102AD0002CF481E090E09E838D833FC06F817885E8
:102AE00089859A8520E03FEF4FE757E40E94FE2753
:102AF00018164CF56B857C858D859E8520E030E031
:102B000040E251E40E945826DC01CB01BC01CD011A
:102B10000E948224DC01CB019E838D830FC084E15F
:102B200091E09C838B838B819C810197F1F79C833F
:102B30008B838D819E8101979E838D838D819E8164
:102B4000009769F714C06F81788589859A850E94FE
:102B50008224DC01CB019E838D838D819E819A83AB
:102B6000898389819A810197F1F79A8389838F8577
:102B700098890196988B8F872F85388980910A02D2
:102B800090910B022817390708F47CCF60960FB696
:102B9000F894DEBF0FBECDBFCF91DF910895DF93D4
:102BA000CF93CDB7DEB760970FB6F894DEBF0FBEF8
:102BB000CDBF188A1F8680910E0290910F02988BCC
:102BC0008F877AC08F850E94CA1180E090E0A0EACA
:102BD000B1E48B879C87AD87BE876B857C858D85AF
:102BE0009E852DEC3CEC4CE255E40E945826DC011D
:102BF000CB018F839887A987BA876F81788589856C
:102C00009A8520E030E040E85FE30E945E28882358
:102C10002CF481E090E09E838D833FC06F817885A6
:102C200089859A8520E03FEF4FE757E40E94FE2711
:102C300018164CF56B857C858D859E8520E030E0EF
:102C400040E251E40E945826DC01CB01BC01CD01D9
:102C50000E948224DC01CB019E838D830FC084E11E
:102C600091E09C838B838B819C810197F1F79C83FE
:102C70008B838D819E8101979E838D838D819E8123
:102C8000009769F714C06F81788589859A850E94BD
:102C90008224DC01CB019E838D838D819E819A836A
:102CA000898389819A810197F1F79A8389838F8536
:102CB00098890197988B8F872F853889809110028A
:102CC000909111028217930708F47CCF60960FB69B
:102CD000F894DEBF0FBECDBFCF91DF910895DF9393
:102CE000CF93CDB7DEB760970FB6F894DEBF0FBEB7
:102CF000CDBF188A1F868091100290911102988B87
:102D00008F877AC08F850E94CA1180E090E0A0EA88
:102D1000B1E48B879C87AD87BE876B857C858D856D
:102D20009E852DEC3CEC4CE255E40E945826DC01DB
:102D3000CB018F839887A987BA876F81788589852A
:102D40009A8520E030E040E85FE30E945E28882317
:102D50002CF481E090E09E838D833FC06F81788565
:102D600089859A8520E03FEF4FE757E40E94FE27D0
:102D700018164CF56B857C858D859E8520E030E0AE
:102D800040E251E40E945826DC01CB01BC01CD0198
:102D90000E948224DC01CB019E838D830FC084E1DD
:102DA00091E09C838B838B819C810197F1F79C83BD
:102DB0008B838D819E8101979E838D838D819E81E2
:102DC000009769F714C06F81788589859A850E947C
:102DD0008224DC01CB019E838D838D819E819A8329
:102DE000898389819A810197F1F79A8389838F85F5
:102DF00098890196988B8F872F85388980910E024C
:102E000090910F022817390708F47CCF60960FB60F
:102E1000F894DEBF0FBECDBFCF91DF910895DF9351
:102E2000CF930F920F92CDB7DEB7EDE2F0E01082B4
:102E3000AEE2B0E0EEE2F0E0808180638C930F9030
:102E40000F90CF91DF910895DF93CF93CDB7DEB789
:102E5000E1ECF0E01082E0ECF0E01082E2ECF0E077
:102E600086E08083E4ECF0E087E48083E5ECF0E04A
:102E70001082E1ECF0E080E98083CF91DF9108954A
:102E8000DF93CF93CDB7DEB7F8940E943A010E944A
:102E90000F040E9418040E9484030E941C050E94D3
:102EA000450A0E9446050E94C50F0E9424170E94F1
:102EB0005D010E9472010E9494010E94AB010E9478
:102EC0006F117894CF91DF9108951F920F920FB6F2
:102ED0000F9200905B000F9211242F933F934F931A
:102EE0005F936F937F938F939F93AF93BF93EF9372
:102EF000FF93DF93CF930F920F92CDB7DEB7E6EC3F
:102F0000F0E080818093380380913803863679F42D
:102F10000E94B51081E090E090931D0280931C0206
:102F200081E090E09093400380933F0317C080912D
:102F300038038C3621F48CE680934B030FC08091CC
:102F40003803883621F488E680934B0307C08091CC
:102F50003803843619F484E680934B038091380358
:102F6000282F30E03A83298389819A81853391051E
:102F700009F408C129813A8126333105F4F48981A5
:102F80009A818233910509F464C029813A812333FF
:102F9000310534F489819A818133910539F1E4C195
:102FA00029813A812333310509F486C089819A81C8
:102FB0008433910509F4B3C0D7C129813A812733FD
:102FC000310509F445C189819A81873391050CF453
:102FD0000CC129813A812833310509F46AC18981FC
:102FE0009A818933910509F494C1BEC10E94B5103C
:102FF00080914B038C36B9F4809134039091350362
:10300000880F991FFC01E25BFC4F81E090E0918307
:10301000808380913403909135030196909335031A
:1030200080933403A1C180914B03883669F48AE010
:1030300090E0909344038093430381E090E0909369
:1030400042038093410390C180914B03843609F47D
:103050008BC10E94B51080914B038C36B9F48091DE
:10306000340390913503880F991FFC01E25BFC4FFC
:1030700082E090E0918380838091340390913503C6
:10308000019690933503809334036EC180914B0376
:10309000883669F484E190E090934403809343037D
:1030A00081E090E090934203809341035DC1809161
:1030B0004B03843609F458C10E94B51080914B032C
:1030C0008C36B9F48091340390913503880F991FA1
:1030D000FC01E25BFC4F83E090E091838083809170
:1030E0003403909135030196909335038093340314
:1030F0003BC180914B03883669F48EE190E0909358
:1031000044038093430381E090E0909342038093D3
:1031100041032AC180914B03843609F425C10E94E2
:10312000B51080914B038C36B9F4809134039091A3
:103130003503880F991FFC01E25BFC4F84E090E0AF
:10314000918380838091340390913503019690930D
:1031500035038093340308C180914B03883669F4AA
:1031600088E290E0909344038093430381E090E0F1
:103170009093420380934103F7C080914B038436C0
:1031800009F4F2C00E94B51080914B038C36B9F45B
:103190008091340390913503880F991FFC01E25B05
:1031A000FC4F85E090E0918380838091340390917F
:1031B000350301969093350380933403D5C08091F5
:1031C0004B03883669F482E390E090934403809344
:1031D000430381E090E09093420380934103C4C095
:1031E00080914B03843609F4BFC00E94B5108091D2
:1031F0004B038C36B9F48091340390913503880FDA
:10320000991FFC01E25BFC4F86E090E09183808394
:103210008091340390913503019690933503809308
:103220003403A2C080914B03883669F48CE390E0AC
:10323000909344038093430381E090E09093420392
:103240008093410391C080914B03843609F48CC074
:1032500080914B038C36B9F48091340390913503FF
:10326000880F991FFC01E25BFC4F87E090E091839F
:1032700080838091340390913503019690933503B8
:103280008093340371C080914B03883669F486E4DF
:1032900090E0909344038093430381E090E0909307
:1032A00042038093410360C080914B03843609F44C
:1032B0005BC080914B038C36B9F4809134039091BC
:1032C0003503880F991FFC01E25BFC4F88E090E01A
:1032D000918380838091340390913503019690937C
:1032E00035038093340340C080914B03883669F4E2
:1032F00080E590E0909344038093430381E090E065
:1033000090934203809341032FC080914B038436F6
:1033100059F180914B038C36B9F48091340390912C
:103320003503880F991FFC01E25BFC4F89E090E0B8
:10333000918380838091340390913503019690931B
:1033400035038093340310C080914B03883661F4B9
:103350008AE590E0909344038093430381E090E0FA
:1033600090934203809341030F900F90CF91DF9190
:10337000FF91EF91BF91AF919F918F917F916F914D
:103380005F914F913F912F910F9000925B000F90B2
:103390000FBE0F901F901895DF93CF93CDB7DEB778
:1033A0002A970FB6F894DEBF0FBECDBF0E94060568
:1033B0009A87898789859A85AA2797FDA095BA2F2C
:1033C000BC01CD010E948E28DC01CB018D839E8340
:1033D000AF83B8876D817E818F81988520E030E052
:1033E00040E350E40E945227DC01CB0189839A8399
:1033F000AB83BC8369817A818B819C810E94EC289C
:10340000DC01CB012A960FB6F894DEBF0FBECDBF0C
:10341000CF91DF910895DF93CF9300D000D0CDB747
:10342000DEB71E821D820E94CC199C838B838B8108
:103430009C819A83898389819A810E94340389813E
:103440009A8126960FB6F894DEBF0FBECDBFCF91FE
:10345000DF910895DF93CF930F920F92CDB7DEB730
:103460009A83898389819A810E9447030F900F90E4
:10347000CF91DF9108950F931F93DF93CF93CDB733
:10348000DEB7C259D0400FB6F894DEBF0FBECDBF35
:10349000FE01E357FF4F88E790E0918380830E940D
:1034A000B5100E94310288EC90E00E94C80388ECBD
:1034B00090E00E94E20383E590E00E945A03FE013F
:1034C000E757FF4F80E090E0AAEFB4E48083918358
:1034D000A283B3838E010B571F4FFE01E757FF4FA7
:1034E00060817181828193812DEC3CEC4CE255E44A
:1034F0000E945826DC01CB01F80180839183A283CE
:10350000B383FE01EB57FF4F60817181828193810C
:1035100020E030E040E85FE30E945E28882344F426
:10352000FE01ED57FF4F81E090E09183808364C0FE
:10353000FE01EB57FF4F608171818281938120E012
:103540003FEF4FE757E40E94FE2718160CF043C0E8
:10355000FE01E757FF4F608171818281938120E0F6
:1035600030E040E251E40E945826DC01CB018E019C
:103570000D571F4FBC01CD010E948224DC01CB01FD
:10358000F801918380831FC0FE01EF57FF4F84E154
:1035900091E091838083FE01EF57FF4F80819181FD
:1035A0000197F1F7FE01EF57FF4F91838083DE0112
:1035B000AD57BF4FFE01ED57FF4F808191810197BD
:1035C00011969C938E93FE01ED57FF4F8081918160
:1035D0000097D1F627C08E010D571F4FFE01EB5704
:1035E000FF4F60817181828193810E948224DC017E
:1035F000CB01F80191838083DE01A158BF4FFE010A
:10360000ED57FF4F808191818D939C93FE01E1588E
:10361000FF4F808191810197F1F7FE01E158FF4F43
:10362000918380830E949312FE01E558FF4F80E052
:1036300090E0AAEFB4E480839183A283B3838E01E8
:1036400009581F4FFE01E558FF4F6081718182814B
:1036500093812DEC3CEC4CE255E40E945826DC01B1
:10366000CB01F80180839183A283B383FE01E958E3
:10367000FF4F608171818281938120E030E040E8DA
:103680005FE30E945E28882344F4FE01EB58FF4F5D
:1036900081E090E09183808364C0FE01E958FF4F90
:1036A000608171818281938120E03FEF4FE757E491
:1036B0000E94FE2718160CF043C0FE01E558FF4F8C
:1036C000608171818281938120E030E040E251E4A9
:1036D0000E945826DC01CB018E010B581F4FBC0104
:1036E000CD010E948224DC01CB01F801918380830B
:1036F0001FC0FE01ED58FF4F84E191E0918380836C
:10370000FE01ED58FF4F808191810197F1F7FE0195
:10371000ED58FF4F91838083DE01AB58BF4FFE0110
:10372000EB58FF4F80819181019711969C938E9366
:10373000FE01EB58FF4F808191810097D1F628C0A0
:103740008E010B581F4FFE01E958FF4F60817181B8
:10375000828193810E948224DC01CB01F801918354
:103760008083DE01AF58BF4FFE01EB58FF4F8081D1
:10377000918111969C938E93FE01EF58FF4F8081AB
:1037800091810197F1F7FE01EF58FF4F91838083FC
:10379000E6ECF0E081E08083809141039091420368
:1037A00081309105C9F71092420310924103FE0146
:1037B000E359FF4F80E090E0AAEFB4E48083918367
:1037C000A283B3838E0107591F4FFE01E359FF4FB8
:1037D00060817181828193812DEC3CEC4CE255E457
:1037E0000E945826DC01CB01F80180839183A283DB
:1037F000B383FE01E759FF4F60817181828193811C
:1038000020E030E040E85FE30E945E28882344F433
:10381000FE01E959FF4F81E090E09183808364C00D
:10382000FE01E759FF4F608171818281938120E021
:103830003FEF4FE757E40E94FE2718160CF043C0F5
:10384000FE01E359FF4F608171818281938120E005
:1038500030E040E251E40E945826DC01CB018E01A9
:1038600009591F4FBC01CD010E948224DC01CB010C
:10387000F801918380831FC0FE01EB59FF4F84E163
:1038800091E091838083FE01EB59FF4F808191810C
:103890000197F1F7FE01EB59FF4F91838083DE0121
:1038A000A959BF4FFE01E959FF4F808191810197CE
:1038B00011969C938E93FE01E959FF4F808191816F
:1038C0000097D1F627C08E0109591F4FFE01E75915
:1038D000FF4F60817181828193810E948224DC018B
:1038E000CB01F80191838083DE01AD59BF4FFE010A
:1038F000E959FF4F808191818D939C93FE01ED5991
:10390000FF4F808191810197F1F7FE01ED59FF4F43
:10391000918380830E946F16FE01E15AFF4F80E081
:1039200090E0AAEFB4E480839183A283B3838E01F5
:10393000055A1F4FFE01E15AFF4F6081718182815C
:1039400093812DEC3CEC4CE255E40E945826DC01BE
:10395000CB01F80180839183A283B383FE01E55AF2
:10396000FF4F608171818281938120E030E040E8E7
:103970005FE30E945E28882344F4FE01E75AFF4F6C
:1039800081E090E09183808364C0FE01E55AFF4F9F
:10399000608171818281938120E03FEF4FE757E49E
:1039A0000E94FE2718160CF043C0FE01E15AFF4F9B
:1039B000608171818281938120E030E040E251E4B6
:1039C0000E945826DC01CB018E01075A1F4FBC0113
:1039D000CD010E948224DC01CB01F8019183808318
:1039E0001FC0FE01E95AFF4F84E191E0918380837B
:1039F000FE01E95AFF4F808191810197F1F7FE01A5
:103A0000E95AFF4F91838083DE01A75ABF4FFE0121
:103A1000E75AFF4F80819181019711969C938E9375
:103A2000FE01E75AFF4F808191810097D1F627C0B0
:103A30008E01075A1F4FFE01E55AFF4F60817181C9
:103A4000828193810E948224DC01CB01F801918361
:103A50008083DE01AB5ABF4FFE01E75AFF4F8081E2
:103A600091818D939C93FE01EB5AFF4F8081918150
:103A70000197F1F7FE01EB5AFF4F9183808380910C
:103A8000430390914403CC01A0E0B0E0BC01CD0120
:103A90000E944029DC01CB01BC01CD010E943414FD
:103AA0000E94CC19FE01E157FF4F91838083FE01F4
:103AB000E157FF4F808191810E943403FE01EF5650
:103AC000FF4F808191810E94AF0FFE01EF56FF4FA3
:103AD000808191810E94AF0FFE01EF5AFF4F80E07D
:103AE00090E0AAEFB4E480839183A283B3838E0134
:103AF000035B1F4FFE01EF5AFF4F6081718182818E
:103B000093812DEC3CEC4CE255E40E945826DC01FC
:103B1000CB01F80180839183A283B383FE01E35B31
:103B2000FF4F608171818281938120E030E040E825
:103B30005FE30E945E28882344F4FE01E55BFF4FAB
:103B400081E090E09183808364C0FE01E35BFF4FDE
:103B5000608171818281938120E03FEF4FE757E4DC
:103B60000E94FE2718160CF043C0FE01EF5AFF4FCB
:103B7000608171818281938120E030E040E251E4F4
:103B80000E945826DC01CB018E01055B1F4FBC0152
:103B9000CD010E948224DC01CB01F8019183808356
:103BA0001FC0FE01E75BFF4F84E191E091838083BA
:103BB000FE01E75BFF4F808191810197F1F7FE01E4
:103BC000E75BFF4F91838083DE01A55BBF4FFE0162
:103BD000E55BFF4F80819181019711969C938E93B5
:103BE000FE01E55BFF4F808191810097D1F627C0F0
:103BF0008E01055B1F4FFE01E35BFF4F608171810A
:103C0000828193810E948224DC01CB01F80191839F
:103C10008083DE01A95BBF4FFE01E55BFF4F808122
:103C200091818D939C93FE01E95BFF4F808191818F
:103C30000197F1F7FE01E95BFF4F918380830E94BA
:103C4000CF15FE01ED5BFF4F80E090E0AAEFB4E4FA
:103C500080839183A283B3838E01015C1F4FFE0199
:103C6000ED5BFF4F60817181828193812DEC3CEC93
:103C70004CE255E40E945826DC01CB01F801808318
:103C80009183A283B383FE01FF966081718182815B
:103C9000938120E030E040E85FE30E945E288823C3
:103CA0002CF481E090E09EAF8DAF46C0FE01FF9600
:103CB000608171818281938120E03FEF4FE757E47B
:103CC0000E94FE27181664F5FE01ED5BFF4F608130
:103CD00071818281938120E030E040E251E40E94D2
:103CE0005826DC01CB01BC01CD010E948224DC01FD
:103CF000CB019EAF8DAF0FC084E191E09CAF8BAF45
:103D00008BAD9CAD0197F1F79CAF8BAF8DAD9EADA8
:103D100001979EAF8DAF8DAD9EAD009769F716C030
:103D2000FE01FF9660817181828193810E948224CD
:103D3000DC01CB019EAF8DAF8DAD9EAD9AAF89AF4B
:103D400089AD9AAD0197F1F79AAF89AF60E070E065
:103D500084EB92E40E943414FE01E157FF4F80810E
:103D600091810E94470380E090E0AAEFB4E48DAB1C
:103D70009EABAFABB8AF6DA97EA98FA998AD2DEC66
:103D80003CEC4CE255E40E945826DC01CB0189ABA7
:103D90009AABABABBCAB69A97AA98BA99CA920E073
:103DA00030E040E85FE30E945E2888232CF481E045
:103DB00090E098AB8FA73FC069A97AA98BA99CA96D
:103DC00020E03FEF4FE757E40E94FE2718164CF51E
:103DD0006DA97EA98FA998AD20E030E040E251E4C2
:103DE0000E945826DC01CB01BC01CD010E94822437
:103DF000DC01CB0198AB8FA70FC084E191E09EA7B7
:103E00008DA78DA59EA50197F1F79EA78DA78FA5DC
:103E100098A9019798AB8FA78FA598A9009769F7E4
:103E200014C069A97AA98BA99CA90E948224DC01EB
:103E3000CB0198AB8FA78FA598A99CA78BA78BA523
:103E40009CA50197F1F79CA78BA783E590E00E94C2
:103E50006F0380E090E0AAEFB4E48FA398A7A9A72E
:103E6000BAA76FA178A589A59AA52DEC3CEC4CE2E8
:103E700055E40E945826DC01CB018BA39CA3ADA383
:103E8000BEA36BA17CA18DA19EA120E030E040E803
:103E90005FE30E945E2888232CF481E090E09AA3DF
:103EA00089A33FC06BA17CA18DA19EA120E03FEF23
:103EB0004FE757E40E94FE2718164CF56FA178A52E
:103EC00089A59AA520E030E040E251E40E945826FE
:103ED000DC01CB01BC01CD010E948224DC01CB01BD
:103EE0009AA389A30FC084E191E098A38F8F8F8D4F
:103EF00098A10197F1F798A38F8F89A19AA10197B3
:103F00009AA389A389A19AA1009769F714C06BA10C
:103F10007CA18DA19EA10E948224DC01CB019AA3E9
:103F200089A389A19AA19E8F8D8F8D8D9E8D0197DA
:103F3000F1F79E8F8D8F0E942F1580E090E0AAEF01
:103F4000B4E4898F9A8FAB8FBC8F698D7A8D8B8DFE
:103F50009C8D2DEC3CEC4CE255E40E945826DC0193
:103F6000CB018D8B9E8BAF8BB88F6D897E898F89AE
:103F7000988D20E030E040E85FE30E945E288823CF
:103F80002CF481E090E09C8B8B8B3FC06D897E8907
:103F90008F89988D20E03FEF4FE757E40E94FE277E
:103FA00018164CF5698D7A8D8B8D9C8D20E030E054
:103FB00040E251E40E945826DC01CB01BC01CD0156
:103FC0000E948224DC01CB019C8B8B8B0FC084E18F
:103FD00091E09A8B898B89899A890197F1F79A8B5D
:103FE000898B8B899C8901979C8B8B8B8B899C8976
:103FF000009769F714C06D897E898F89988D0E941A
:104000008224DC01CB019C8B8B8B8B899C89988BC8
:104010008F878F8598890197F1F7988B8F870E94FA
:104020001E1380E090E0AAEFB4E48B879C87AD87F5
:10403000BE876B857C858D859E852DEC3CEC4CE2A6
:1040400055E40E945826DC01CB018F839887A9870D
:10405000BA876F81788589859A8520E030E040E8CD
:104060005FE30E945E2888232CF481E090E09E8329
:104070008D833FC06F81788589859A8520E03FEFE9
:104080004FE757E40E94FE2718164CF56B857C8598
:104090008D859E8520E030E040E251E40E94582664
:1040A000DC01CB01BC01CD010E948224DC01CB01EB
:1040B0009E838D830FC084E191E09C838B838B81F1
:1040C0009C810197F1F79C838B838D819E81019761
:1040D0009E838D838D819E81009769F714C06F81C7
:1040E000788589859A850E948224DC01CB019E8394
:1040F0008D838D819E819A83898389819A8101979D
:10410000F1F79A8389830E9466120E9475120E94B9
:10411000841281E090E090931D0280931C0281E064
:1041200090E09093400380933F03CE56DF4F0FB64D
:10413000F894DEBF0FBECDBFCF91DF911F910F91DD
:104140000895DF93CF93CDB7DEB76C970FB6F89491
:10415000DEBF0FBECDBF0E944017109233031092F6
:1041600032030E940F17A1ECB0E0E1ECF0E0808197
:1041700080618C93A1ECB0E0E1ECF0E0808188609C
:104180008C93A1ECB0E0E1ECF0E0808180688C934E
:104190000E941E1380E090E0AAEFB4E4898F9A8F0A
:1041A000AB8FBC8F698D7A8D8B8D9C8D2DEC3CEC0B
:1041B0004CE255E40E945826DC01CB018D8B9E8B8E
:1041C000AF8BB88F6D897E898F89988D20E030E024
:1041D00040E85FE30E945E2888232CF481E090E0B1
:1041E0009C8B8B8B3FC06D897E898F89988D20E059
:1041F0003FEF4FE757E40E94FE2718164CF5698DF4
:104200007A8D8B8D9C8D20E030E040E251E40E945D
:104210005826DC01CB01BC01CD010E948224DC01C7
:10422000CB019C8B8B8B0FC084E191E09A8B898BA7
:1042300089899A890197F1F79A8B898B8B899C8957
:1042400001979C8B8B8B8B899C89009769F714C095
:104250006D897E898F89988D0E948224DC01CB0133
:104260009C8B8B8B8B899C89988B8F878F8598896A
:104270000197F1F7988B8F870E942F1580E090E0CF
:10428000AAEFB4E48B879C87AD87BE876B857C855E
:104290008D859E852DEC3CEC4CE255E40E94582621
:1042A000DC01CB018F839887A987BA876F817885D6
:1042B00089859A8520E030E040E85FE30E945E282F
:1042C00088232CF481E090E09E838D833FC06F8132
:1042D000788589859A8520E03FEF4FE757E40E9473
:1042E000FE2718164CF56B857C858D859E8520E014
:1042F00030E040E251E40E945826DC01CB01BC01D1
:10430000CD010E948224DC01CB019E838D830FC0EE
:1043100084E191E09C838B838B819C810197F1F7F1
:104320009C838B838D819E8101979E838D838D815C
:104330009E81009769F714C06F81788589859A8579
:104340000E948224DC01CB019E838D838D819E811E
:104350009A83898389819A810197F1F79A83898366
:1043600081E00E943104882F90E090936C03809349
:104370006B0382E00E943104882F90E090936403E5
:104380008093630383E00E943104882F90E0909330
:104390006A03809369030E94CC1990934A03809327
:1043A00049038091490390914A030E94AF0F809185
:1043B0003403909135030197880F991FFC01E25B4C
:1043C000FC4F808191810E94DA0E20916B03309125
:1043D0006C0380911402909115022817390708F098
:1043E0005CC020916303309164038091140290912A
:1043F00015022817390708F050C020916903309141
:104400006A0380911402909115022817390708F069
:1044100044C080911C0290911D0281309105E9F504
:104420008091360390913703880F991FFC01E25B5E
:10443000FC4F2081318180913203909133038217A8
:10444000930758F580911602909117020E94C803B5
:1044500080911602909117020E94E2030E94E101EE
:1044600081E090E090933A038093390381E090E0FB
:1044700090931D0280931C02809116029091170266
:1044800090933C0380933B03809116029091170216
:1044900090933E0380933D0363CF20916B03309153
:1044A0006C0380911402909115022817390708F0C7
:1044B00050C0209163033091640380911402909165
:1044C00015022817390708F044C080911C0290910A
:1044D0001D0281309105E9F58091360390913703F3
:1044E000880F991FFC01E25BFC4F20813181809194
:1044F0003203909133038217930758F58091160287
:10450000909117020E94C80380911802909119029D
:104510000E94E2030E94E10181E090E090933A035F
:104520008093390381E090E090931D0280931C02F8
:10453000809116029091170290933C0380933B0365
:10454000809118029091190290933E0380933D034D
:1045500007CF2091630330916403809114029091FE
:1045600015022817390708F050C0209169033091CF
:104570006A0380911402909115022817390708F0F8
:1045800044C080911C0290911D0281309105E9F593
:104590008091360390913703880F991FFC01E25BED
:1045A000FC4F208131818091320390913303821737
:1045B000930758F580911802909119020E94C80340
:1045C00080911602909117020E94E2030E94E1017D
:1045D00081E090E090933A038093390381E090E08A
:1045E00090931D0280931C028091180290911902F1
:1045F00090933C0380933B038091160290911702A5
:1046000090933E0380933D03ABCE20916B0330919A
:104610006C0380911402909115022817390708F055
:1046200044C080911C0290911D0281309105E9F5F2
:104630008091360390913703880F991FFC01E25B4C
:10464000FC4F208131818091320390913303821796
:10465000930758F580911602909117020E94C803A3
:1046600080911A0290911B020E94E2030E94E101D4
:1046700081E090E090933A038093390381E090E0E9
:1046800090931D0280931C02809116029091170254
:1046900090933C0380933B0380911A0290911B02FC
:1046A00090933E0380933D035BCE2091690330914C
:1046B0006A0380911402909115022817390708F0B7
:1046C00044C080911C0290911D0281309105E9F552
:1046D0008091360390913703880F991FFC01E25BAC
:1046E000FC4F2081318180913203909133038217F6
:1046F000930758F580911A0290911B020E94C803FB
:1047000080911602909117020E94E2030E94E1013B
:1047100081E090E090933A038093390381E090E048
:1047200090931D0280931C0280911A0290911B02AB
:1047300090933C0380933B03809116029091170263
:1047400090933E0380933D030BCE20916303309101
:10475000640380911402909115022817390708F01C
:1047600044C080911C0290911D0281309105E9F5B1
:104770008091360390913703880F991FFC01E25B0B
:10478000FC4F208131818091320390913303821755
:10479000930758F580911602909117020E94C80362
:1047A00080911602909117020E94E2030E94E1019B
:1047B00081E090E090933A038093390381E090E0A8
:1047C00090931D0280931C02809116029091170213
:1047D00090933C0380933B038091160290911702C3
:1047E00090933E0380933D03BBCD8091390390911C
:1047F0003A0381309105D1F58091320390913303D2
:104800000196909333038093320310923A031092EF
:10481000390310922D0310922C0310922903109249
:10482000280310922B0310922A0380913603909153
:104830003703880F991FFC01E25BFC4F2081318117
:1048400080913203909133032817390709F088CDFE
:1048500080913603909137030196909337038093AC
:10486000360310921D0210921C027ACD80912C0307
:1048700090912D038130910579F480E090E00E94C1
:10488000C80380E090E00E94E20383E690E090930A
:1048900033038093320364CD80911C0290911D02FA
:1048A000009709F05DCD20916B0330916C038091EE
:1048B00014029091150228173907B8F0209163036C
:1048C00030916403809114029091150228173907E2
:1048D00060F02091690330916A03809114029091F5
:1048E00015022817390708F03BCD80E090E00E94C0
:1048F000C80380E090E00E94E2030E94B5100E948D
:104900003B1A2ECDEF92FF920F931F937B018C01E8
:1049100020E030E040E05FE40E942E2888238CF005
:10492000C801B70120E030E040E05FE40E94FA25D2
:104930000E94EC289B01AC01205030404040504880
:1049400006C0C801B7010E94EC289B01AC01B90167
:10495000CA011F910F91FF90EF900895A0E0B0E081
:10496000E4EBF4E20C94DE2BDC012B01FA019C91C8
:10497000923008F439C1EB018881823008F433C1E8
:10498000943069F4843009F02FC111969C911197ED
:104990008981981709F428C1A0E2B2E025C18430CA
:1049A00009F421C18230A9F4923009F01DC19A01A5
:1049B000AD0188E0EA010990AE01E90109929E018A
:1049C0008150C1F7E201898111969C9189238183ED
:1049D00008C1923009F407C112962D903C901397AC
:1049E000EB018A819B811496AD90BD90CD90DC90B7
:1049F0001797EC80FD800E811F819101281B390BD8
:104A0000B90137FF04C066277727621B730B60323A
:104A100071050CF061C0121613066CF537014801E0
:104A2000062E04C096948794779467940A94D2F7DC
:104A300021E030E040E050E004C0220F331F441F6B
:104A4000551F6A95D2F721503040404050402E21EA
:104A50003F2140235123211531054105510521F006
:104A600021E030E040E050E079018A01E628F728B3
:104A7000082919293CC0232BD1F1260E371E3501F8
:104A80004601062E04C096948794779467940A94FE
:104A9000D2F721E030E040E050E004C0220F331FA5
:104AA000441F551F6A95D2F7215030404040504076
:104AB0002A213B214C215D2121153105410551055C
:104AC00021F021E030E040E050E059016A01A628E1
:104AD000B728C828D9280BC0821593052CF01C01D3
:104AE000AA24BB24650103C0EE24FF24870111968C
:104AF0009C91D20111968C91981709F445C0992385
:104B000039F0A80197012A193B094C095D0906C033
:104B1000A60195012E193F09400B510B57FD08C006
:104B200011823382228224833583468357831DC0BA
:104B300081E081833382228288279927DC01821BCE
:104B4000930BA40BB50B84839583A683B7830DC009
:104B5000220F331F441F551F2483358346835783F9
:104B60008281938101979383828324813581468159
:104B70005781DA01C9010197A109B1098F5F9F4FE0
:104B8000AF4FBF4328F30BC0918333822282EA0CDC
:104B9000FB1C0C1D1D1DE482F5820683178383E038
:104BA0008083248135814681578157FF1AC0C9010E
:104BB000AA2797FDA095BA2F81709070A070B07051
:104BC0005695479537952795822B932BA42BB52B7C
:104BD00084839583A683B78382819381019693838F
:104BE0008283DF0101C0D201CD01CDB7DEB7E2E1A2
:104BF0000C94FA2BA0E2B0E0E0E0F6E20C94EA2B91
:104C000069837A838B839C832D833E834F8358876C
:104C1000E9E0EE2EF12CEC0EFD1ECE010196B7015F
:104C20000E94DD2A8E010F5E1F4FCE010596B8014E
:104C30000E94DD2A8A8991E089278A8BC701B80101
:104C4000AE01475E5F4F0E94AE240E94082AA096E4
:104C5000E6E00C94062CA0E2B0E0E1E3F6E20C946E
:104C6000EA2B69837A838B839C832D833E834F83D6
:104C70005887F9E0EF2EF12CEC0EFD1ECE010196C7
:104C8000B7010E94DD2A8E010F5E1F4FCE010596EF
:104C9000B8010E94DD2AC701B801AE01475E5F4F2F
:104CA0000E94AE240E94082AA096E6E00C94062CEE
:104CB000A0E2B0E0EEE5F6E20C94DE2B69837A83A5
:104CC0008B839C832D833E834F835887CE0101962F
:104CD000BE01675F7F4F0E94DD2ACE010596BE01AF
:104CE0006F5E7F4F0E94DD2A9985923088F0898916
:104CF0008230C8F0943019F4823051F404C084300A
:104D000029F4923081F480E292E0C6C0923049F4F6
:104D100020E09A858A89981321E02A87CE01099696
:104D2000BBC0823049F420E09A858A89981321E03B
:104D30002A8BCE014196B0C02D843E844F84588882
:104D40006D887E888F88988CEE24FF248701AA24A2
:104D5000BB24650140E050E060E070E0E0E0F0E09E
:104D6000C10181709070892BE9F0E60CF71C081DD9
:104D7000191D9A01AB012A0D3B1D4C1D5D1D80E0E4
:104D800090E0A0E0B0E0E614F7040805190520F46F
:104D900081E090E0A0E0B0E0BA01A901480F591FFE
:104DA0006A1F7B1FAA0CBB1CCC1CDD1C97FE08C015
:104DB00081E090E0A0E0B0E0A82AB92ACA2ADB2A64
:104DC0003196E032F10549F0660C771C881C991C7D
:104DD0005694479437942794C3CFFA85EA892B8950
:104DE0003C898B859C85280F391F2E5F3F4F17C04C
:104DF000CA0181709070892B61F016950795F79420
:104E0000E79480E090E0A0E0B0E8E82AF92A0A2BD5
:104E10001B2B76956795579547952F5F3F4F77FDED
:104E2000E7CF0CC0440F551F661F771F17FD416069
:104E3000EE0CFF1C001F111F21503040403090E04D
:104E4000590790E0690790E4790760F32B8F3C8F56
:104E5000DB01CA018F779070A070B070803491052B
:104E6000A105B10561F447FD0AC0E114F104010593
:104E7000110529F0405C5F4F6F4F7F4F40781A8ECD
:104E8000FE1711F081E08A8F4D8F5E8F6F8F78A3B0
:104E900083E0898FCE0149960E94082AA096E2E11C
:104EA0000C94FA2BA8E1B0E0E8E5F7E20C94E62BCD
:104EB00069837A838B839C832D833E834F835887BA
:104EC000B9E0EB2EF12CEC0EFD1ECE010196B701E0
:104ED0000E94DD2A8E010F5E1F4FCE010596B8019C
:104EE0000E94DD2A2985223008F47EC039893230BB
:104EF00010F4B8017CC08A859A8989278A87243072
:104F000011F0223031F4231709F06EC060E272E034
:104F10006EC0343039F41D861E861F86188A1C86A2
:104F20001B8604C0323021F484E08987B7015FC05A
:104F30002B853C858B899C89281B390B3C872B87CB
:104F4000ED84FE840F851889AD88BE88CF88D88C03
:104F5000EA14FB040C051D0540F4EE0CFF1C001FB9
:104F6000111F215030403C872B8720E030E040E08B
:104F700050E080E090E0A0E0B0E460E070E0EA148F
:104F8000FB040C051D0540F0282B392B4A2B5B2B0D
:104F9000EA18FB080C091D09B695A7959795879502
:104FA000EE0CFF1C001F111F6F5F7F4F6F317105EB
:104FB00031F7DA01C9018F779070A070B07080343A
:104FC0009105A105B10561F427FD0AC0E114F104C2
:104FD0000105110529F0205C3F4F4F4F5F4F2078AE
:104FE0002D873E874F87588BBE01675F7F4FCB0170
:104FF0000E94082A6896EAE00C94022CA8E1B0E02E
:10500000E4E0F8E20C94EA2B69837A838B839C8337
:105010002D833E834F83588789E0E82EF12CEC0ED8
:10502000FD1ECE010196B7010E94DD2A8E010F5EA2
:105030001F4FCE010596B8010E94DD2A8985823076
:1050400040F08989823028F0C701B8010E94552BB1
:1050500001C08FEF6896E6E00C94062CA8E1B0E062
:10506000E4E3F8E20C94EA2B69837A838B839C83D4
:105070002D833E834F83588789E0E82EF12CEC0E78
:10508000FD1ECE010196B7010E94DD2A8E010F5E42
:105090001F4FCE010596B8010E94DD2A8985823016
:1050A00040F08989823028F0C701B8010E94552B51
:1050B00001C08FEF6896E6E00C94062CA8E1B0E002
:1050C000E4E6F8E20C94EA2B69837A838B839C8371
:1050D0002D833E834F83588789E0E82EF12CEC0E18
:1050E000FD1ECE010196B7010E94DD2A8E010F5EE2
:1050F0001F4FCE010596B8010E94DD2A89858230B6
:1051000040F08989823028F0C701B8010E94552BF0
:1051100001C081E06896E6E00C94062CA8E0B0E0BF
:10512000E4E9F8E20C94E72B9B01AC0183E089836E
:10513000DA01C9018827B7FD83959927AA27BB27DC
:10514000B82E211531054105510519F482E08983F6
:105150003AC08823A9F0203080E0380780E0480773
:1051600080E8580729F460E070E080E09FEC30C0F0
:10517000EE24FF248701E21AF30A040B150B02C088
:1051800079018A018EE1C82ED12CDC82CB82ED829E
:10519000FE820F831887C801B7010E94B9290197C1
:1051A0001816190684F4082E04C0EE0CFF1C001F0C
:1051B000111F0A94D2F7ED82FE820F831887C81A56
:1051C000D90ADC82CB82BA82CE0101960E94082ADB
:1051D0002896E9E00C94032CACE0B0E0E2EFF8E2B2
:1051E0000C94EE2B69837A838B839C83CE0101968A
:1051F000BE016B5F7F4F0E94DD2A8D81823061F19D
:10520000823050F1843021F48E81882351F12EC0F8
:105210002F81388537FD20C06E812F3131051CF07C
:105220006623F9F023C08EE190E0821B930B298561
:105230003A854B855C8504C05695479537952795EB
:105240008A95D2F76623B1F0509540953095219517
:105250003F4F4F4F5F4F0EC020E030E040E050E046
:1052600009C02FEF3FEF4FEF5FE704C020E030E0D1
:1052700040E050E8B901CA012C96E2E00C940A2CF7
:10528000A8E0B0E0E6E4F9E20C94E62B7B018C01A7
:10529000611571058105910519F482E0898360C06B
:1052A00083E089838EE1C82ED12CDC82CB82ED8213
:1052B000FE820F831887C801B7010E94B929FC013B
:1052C0003197F7FF3BC0222733272E1B3F0B570197
:1052D0006801022E04C0D694C794B794A7940A9488
:1052E000D2F740E050E060E070E081E090E0A0E0C4
:1052F000B0E004C0880F991FAA1FBB1F2A95D2F7E0
:105300000197A109B1098E219F21A023B123009704
:10531000A105B10521F041E050E060E070E04A29CC
:105320005B296C297D294D835E836F8378878EE1AD
:1053300090E08E1B9F0B9C838B8312C0309781F073
:105340000E2E04C0EE0CFF1C001F111F0A94D2F792
:10535000ED82FE820F831887CE1ADF0ADC82CB82B1
:105360001A82CE0101960E94082A2896EAE00C943F
:10537000022CEF92FF920F931F937B018C0180E030
:10538000E81680E0F80681E0080780E0180788F456
:105390008FEFE816F1040105110531F028F088E0DF
:1053A00090E0A0E0B0E017C080E090E0A0E0B0E0C6
:1053B00012C080E0E81680E0F80680E0080781E08F
:1053C000180728F088E190E0A0E0B0E004C080E198
:1053D00090E0A0E0B0E020E230E040E050E0281BA8
:1053E000390B4A0B5B0B04C016950795F794E794AD
:1053F0008A95D2F7F701E85DFD4F8081281B3109BE
:1054000041095109C9011F910F91FF90EF90089533
:10541000DF92EF92FF920F931F93FC01E480F580DF
:1054200006811781D1808081823048F480E090E04D
:10543000A0E1B0E0E82AF92A0A2B1B2BA5C0843092
:1054400009F49FC0823021F4EE24FF24870105C0B7
:10545000E114F1040105110519F4E0E0F0E096C053
:10546000628173819FEF623879070CF05BC022E89C
:105470003FEF261B370B2A3131052CF020E030E0BE
:1054800040E050E02AC0B801A701022E04C0769582
:105490006795579547950A94D2F781E090E0A0E090
:1054A000B0E004C0880F991FAA1FBB1F2A95D2F72E
:1054B0000197A109B1098E219F21A023B123009753
:1054C000A105B10521F081E090E0A0E0B0E09A01F3
:1054D000AB01282B392B4A2B5B2BDA01C9018F77C3
:1054E0009070A070B07080349105A105B10539F4B9
:1054F00027FF09C0205C3F4F4F4F5F4F04C0215C26
:105500003F4F4F4F5F4FE0E0F0E02030A0E03A0720
:10551000A0E04A07A0E45A0710F0E1E0F0E07901CA
:105520008A0127C06038710564F5FB01E158FF4F1F
:10553000D801C7018F779070A070B070803491054A
:10554000A105B10539F4E7FE0DC080E490E0A0E0CC
:10555000B0E004C08FE390E0A0E0B0E0E80EF91EF8
:105560000A1F1B1F17FF05C016950795F794E794B0
:10557000319687E016950795F794E7948A95D1F7C9
:1055800005C0EE24FF248701EFEFF0E06E2F679552
:1055900066276795902F9F77D794DD24D7948E2F19
:1055A0008695492F462B582F5D29B701CA011F91B7
:1055B0000F91FF90EF90DF900895FC01DB01408197
:1055C00051812281622F6F7770E0221F2227221FD4
:1055D0009381892F880F822B282F30E0991F9927DC
:1055E000991F11969C93119721153105A9F5411525
:1055F00051056105710511F482E037C082E89FEF23
:1056000013969C938E9312979A01AB0167E0220F39
:10561000331F441F551F6A95D1F783E08C930DC04B
:10562000220F331F441F551F12968D919C91139783
:10563000019713969C938E931297203080E0380741
:1056400080E0480780E4580758F314962D933D9363
:105650004D935C93179708952F3F310579F44115C9
:1056600051056105710519F484E08C93089564FF78
:1056700003C081E08C9312C01C9210C02F573040A1
:1056800013963C932E93129783E08C9387E0440FFC
:10569000551F661F771F8A95D1F7706414964D9336
:1056A0005D936D937C93179708951F93DC01FB0125
:1056B0009C91923008F447C08081823008F443C046
:1056C000943051F411961C91843099F58181682FA2
:1056D00070E0611B71093FC0843021F0923031F4D9
:1056E0008230B9F18181882389F12DC011961C91F6
:1056F00011978230F1F081811817D9F412962D910B
:105700003C911397828193818217930794F0281715
:105710003907BCF014968D919D910D90BC91A02DF0
:105720002481358146815781281739074A075B074D
:1057300018F4112341F00AC082179307A407B50794
:1057400040F4112319F061E070E005C06FEF7FEFC6
:1057500002C060E070E0CB011F910895FC01019050
:105760000020E9F7809590958E0F9F1F0895AA1B42
:10577000BB1B51E107C0AA1FBB1FA617B70710F03C
:10578000A61BB70B881F991F5A95A9F7809590956E
:10579000BC01CD01089597FB092E07260AD077FD9D
:1057A00004D0E5DF06D000201AF4709561957F4F94
:1057B0000895F6F7909581959F4F08952F923F9207
:1057C0004F925F926F927F928F929F92AF92BF9211
:1057D000CF92DF92EF92FF920F931F93CF93DF93BD
:1057E000CDB7DEB7CA1BDB0B0FB6F894DEBF0FBE1A
:1057F000CDBF19942A88398848885F846E847D8457
:105800008C849B84AA84B984C884DF80EE80FD8068
:105810000C811B81AA81B981CE0FD11D0FB6F894DE
:10582000DEBF0FBECDBFED010895FA01EE0FFF1FE1
:1058300030962105310599F16115710561F48038C3
:10584000BFE39B0749F168949038810561F0803887
:10585000BFEF9B0741F0992342F5FF3FE10531057A
:10586000210511F1E8940894E795D901AA2329F4B8
:10587000AB2FBE2FF85FD0F310C0FF5F70F4A6957A
:10588000E0F7F73950F019F0FF3A38F49F779F931B
:105890000CD00F9007FC905808953EF049C060E08E
:1058A00070E080E89FE308954FE79F775F934F9301
:1058B0003F932F93D0D02F913F914F915F91F8D983
:1058C00005C019F40EF02EC07DC032C061D0C8F3FF
:1058D0009638C0F707F80F92E8942BE33AEA48EBC2
:1058E0005FE738D10F920F920F924DB75EB70F92CC
:1058F000F2D0E4EEF0E01FD04F915F91EF91FF9175
:10590000E595EE1FFF1F49F0FE57E0684427EE0FB4
:10591000441FFA95E1F74195550B64D00F9007FEAF
:1059200058C0089597F99F6780E870E060E0089597
:105930009FEF80EC0895DF93CF931F930F93FF9217
:10594000EF92DF927B018C01689405C0DA2EEF01A3
:10595000FFD0FE01E894A59125913591459155918F
:10596000AEF3EF0159D1FE019701A801DA9479F75E
:10597000DF90EF90FF900F911F91CF91DF910895ED
:1059800057FD9058440F551F59F05F3F71F04795F0
:10599000880F97FB991F61F09F3F79F087950895D5
:1059A000121613061406551FF2CF4695F1DF08C0F4
:1059B000161617061806991FF1CF86957105610511
:1059C00008940895E894BB2766277727CB0197F9B9
:1059D00008959B01AC0160E070E080E89FE362CA3B
:1059E000A1CF6DC1D5DFE8F39923D9F3940F511DF1
:1059F000BBF39150504094F059F0882332F0660F79
:105A0000771F881F91505040C1F79E3F510544F7C2
:105A1000880F911D9695879597F908955F3FACF093
:105A2000983E9CF0BB27869577956795B79508F4C7
:105A3000B1609395C1F7BB0F58F711F460FFE8CF41
:105A40006F5F7F4F8F4F9F4FE3CFBDCF0EF037C1BA
:105A50006FCF689467CF9CDFC8F39923D1F3C6F367
:105A6000DF93CF931F930F93FF92C92FDD278823D6
:105A70002AF02197660F771F881FDAF720E030E0C1
:105A800040E85FEB9FE3883920F0803E30F02196BC
:105A90008F77E1D8ECE0F1E003C0DDD8E9E3F1E095
:105AA0004ADF8B01BE01EC01FB2E6F577109759522
:105AB000771F880B990B32DB28E132E741E35FE384
:105AC00047D0AF2D9801AE01FF900F911F91CF915C
:105AD000DF91A2D010C1FA01DC01AA0FBB1F9B010C
